:02000000712964
:10000800FF00030E8301AD000A08AE008A017008E4
:10001800A6007408A5007808A4007A08A3007B0845
:10002800A2007C08A1007D08A0008B1C1F288B1053
:10003800A70A0319A80A00302806031D252801303D
:100048002706031D29281130880000302806031DC3
:100058002F2802302706031D75280330A900803099
:100068002906F0008030003A7002031C7128861CB3
:100078003E28712821308800AA0132302A0203184C
:100088006F280A30F4002908F000E2207008B10057
:100098000A30F4002908F000E2207808F0008910FE
:1000A8000914700887001A30FC00F830FD00FD0BB9
:1000B8005B28FC0B5B2800000910891431088700B5
:1000C8001A30FC00F830FD00FD0B6828FC0B68288E
:1000D8000000AA0A4128A90333280330A7000030EA
:1000E800A80000302806031D7B2803302706031DBF
:1000F8007F280A30880000302806031D8528043030
:100108002706031DCD280330A90080302906F000FA
:100118008030003A7002031CC728861C9428C72820
:100128000C308800AA0132302A020318C5280A3088
:10013800F4002908F000E2207008B2000A30F40048
:100148002908F000E2207808F000891009147008E6
:1001580087001A30FC00F830FD00FD0BB128FC0BBD
:10016800B128000009108914320887001A30FC00F1
:10017800F830FD00FD0BBE28FC0BBE280000AA0AC3
:100188009728A90389280130A7000030A80011305A
:1001980088002608F0002508F4002408F800230841
:1001A800FA002208FB002108FC002008FD002E08A8
:0C01B8008A002D0E8300FF0E7F0E090050
:1001C40083120313FD01F801700803190034740647
:1001D400FA00FA1BFD09FB01F41FF228F409F40AE2
:1001E400F01FF628F009F00A70087404FA00FA1BEC
:1001F4001A297408F802F00D700DF80D7408F80748
:10020400F00D0630FC00700DF80D74087018F8023B
:10021400701CF807F00DFC0B0529701CF8077B18FF
:100224002829FD1F0034F009F00AF809F80A0034FF
:10023400F41F2529F01B22297008F800F001132966
:10024400F001F00A0034F009FB0AFB28F80A7408EC
:100254007802031D1329F801F00AF01F1329FF3453
:02026400080090
:0E026600831203132C088A002B088200080064
:1002740033218A110A128000840AAB0A0319AC0ADA
:08028400F003031D3A290800F4
:10028C000A3083120313F4002F08F000E2207008E8
:10029C00B0000A30F4002F08F000E2207808F000DB
:1002AC0089100914700887001A30FC00F830FD0022
:1002BC00FD0B5E29FC0B5E29000009108914300827
:1002CC0087001A30FC00F830FD00FD0B6B29FC0B8D
:0602DC006B290000080080
:1002E20083120313A701A801073083169F00890117
:1002F200831289018316880183128801831687017C
:10030200831287018316061486148B170B160117A6
:100312008312861CDA290F30A90080302906F000EA
:100322008030003A7002031CB32986189A2988018A
:10033200B3298030033AF000803029067002031C92
:10034200A52921308800A72911308800AA0132305E
:100352002A020318B1292908AF004621AA0AA829AE
:10036200A9038E291730A90080302906F0008030B9
:10037200003A7002031CDA298618C1298801DA2999
:100382008030033AF000803029067002031CCC2929
:100392000C308800CE290A308800AA0132302A02A5
:1003A2000318D8292908AF004621AA0ACF29A90390
:0603B200B5298929DB29B1
:02400E004A2F37
:00000001FF
